:030000000204D522
:0C04D500787FE4F6D8FD75813C02051C20
:0F068A00303132333435363738392E2D4D0000AC
:1005BF0011212050656368696E20536369656E630E
:1005CF0065200001380002320000043400000000F2
:0805DF00C10004390000000016
:10037900AF8CEFFEAD8A7C00E42DF533EC3EF5320F
:10038900E4F58CF58AAC32AD331201B97B9A7A99CE
:1003990079D9783F12000EE4FBFA79C87842120144
:1003A900171201F28F378E368D358C34E47FBC7E7F
:1003B90002FDFCAB37AA36A935A834C3120368502D
:1003C90003300030C200900695E493FB7D01E4FF01
:1003D900120610900694E493FB7D017F011206102A
:1003E900900695E493FB7D017F0212061090069515
:1003F900E40204BEE47BE87A03F9F8AF37AE36AD20
:1004090035AC341202C8AC00AD01AE02AF03E47BD7
:1004190064FAF9F81202C88F39E47BE87A03F9F82B
:10042900AF37AE36AD35AC341202C8AC00AD01AE53
:1004390002AF03E47B64FAF9F81202C8AC00AD011B
:10044900AE02AF03E47B0AFAF9F81202C88F3AE464
:100459007BE87A03F9F8AF37AE36AD35AC34120222
:10046900C8AC00AD01AE02AF03E47B0AFAF9F81299
:1004790002C8AC00AD01AE02AF03E47B0AFAF9F899
:100489001202C8AF038F3BE53990068A93FB7D01C1
:10049900E4FF120610900694E493FB7D017F01129C
:1004A9000610E53A90068A93FB7D017F0212061039
:1004B900E53B90068A93FB7D017F031206109006A7
:0C04C90096E493FB7D017F0412061022D4
:03000B00020003ED
:03000300D20032F6
:10062B00D2A100000000000000000000000000004C
:0A063B0000000000000000C2A12230
:100645007C64EF4E60131CEC60087D0A1DED60F6BE
:0906550080FAEF1F70EC1E80E931
:01065E002279
:10056100758901E4F58CF58AD2A9D2AF12065F7BB9
:10057100007A007921E4FDFF1205E812062B30A074
:10058100FDD28C20A0FDC28C1203797F507E001217
:04059100064580E7B4
:10059500C2A58F807F017E001205A6D2A77F057EAA
:0105A5000055
:1005A600D3EF9400EE9400400F7DC77C01DCFEDDA6
:0805B600FAEF1F70EB1E80E854
:0105BE00221A
:0A069900C2A7C2A6120595C2A7224F
:0A06A300C2A7D2A6120595C2A72235
:10065F007F381206997F0C1206997F061206997F32
:09066F00011206997F8002069930
:10067800ED7004AB078004EF2440FBEB4480FF02DD
:020688000699D1
:10061000AE0753050153060FED6003430640430642
:0B06200080AF06120699AF030206A38C
:1005E8008B088A09890A120678AB08AA09A90A128F
:1005F80002736013050AE50A7002050914F912026C
:0806080073FF1206A380E22239
:10000E00EC4D6011E8497017ED33EC3304600DE4EC
:10001E00FCFFFEFD22E933E8330470F802025E12A3
:10002E00022958046009E4CC2481500628500902A4
:10003E000268284003020265C0E0EB4A7044B980B2
:10004E0006D0E0FB020254EF4E701CBD8008EBFFA1
:10005E00EAFEE9FD80EBE98DF0A4FEE5F00200F783
:10006E00E9CDF9EAFEEBFFEF89F0A4FCE5F0CE89CD
:10007E00F0A42EFFE435F0CD89F0A42DFEE435F08A
:10008E008067EF4E7005BD80D780C3EF8BF0A4ACB8
:10009E00F0EE8BF0A42CFCE435F0F8EF8AF0A42CF3
:1000AE00E5F038FCE433CB8DF0A42CFCE5F03BF806
:1000BE00EE8AF0A42CFCE5F038F8E433CF89F0A4F6
:1000CE002CFCE5F038CF3400CE89F0A42FFFE5F0FC
:1000DE003EFEE433C98DF0A42EFEE5F039CD8AF054
:1000EE00A42FFFE5F03EFEE43DFD33D0E0FB5007CC
:1000FE000BBB000F020268EC2CFCEF33FFEE33FE5D
:06010E00ED33FD0202408A
:10011400020268EC5D046005E85904700302025EA3
:10012400120229580460F6EC4860F2EC7004FDFEFB
:10013400FF22C860DB2481C85009C39860025006BE
:100144000202659850CAF582E9294B4A7005AB82D0
:1001540002025475F0007C1A7880C3EF9BEE9AED8E
:1001640099400DC3EF9BFFEE9AFEED99FDE842F036
:10017400DC23ACF0D0E0FFD0E0FED0E0FDAB822089
:10018400E7101BEB60BAEC2CFCEF33FFEE33FEED13
:1001940033FD020240E803F830E705C0F075F000D3
:1001A400EF2FFFEE33FEED33FD40B830E7C280AAF7
:1001B40075F020800E75F010800575F0087D007EC6
:1001C400007F003392D530D50312035AEC3340102C
:1001D400EF33FFEE33FEED33FDEC33FCD5F0ED22CF
:0E01E400E5F0247EA2D513CC92E7CDCEFF220B
:1001F200EDD2E7CD33EC3392D524814006E4FFFE05
:10020200FDFC22FCE4CFCECDCC24E0501174FF8063
:10021200EDC3CC13CCCD13CDCE13CECF13CF047000
:07022200F030D5DE02035AA3
:10022900E9D2E7C933E833F892D5EDD2E7CD33EC1B
:0702390033FC5002B2D52294
:10024000EC30E7100FBF000C0EBE00080DBD00041F
:100250000BEB6014A2D5EB13FCED92E7FD2274FFCB
:10026000FCFDFEFF22E480F8A2D574FF13FC7D8024
:03027000E480EF38
:1004E100020561E493A3F8E493A34003F68001F2CB
:1004F10008DFF48029E493A3F85407240CC8C3331C
:10050100C4540F4420C8834004F456800146F6DFEA
:10051100E4800B01020408102040809005BFE47EB6
:10052100019360BCA3FF543F30E509541FFEE493DF
:10053100A360010ECF54C025E060A840B8E493A3A6
:10054100FAE493A3F8E493A3C8C582C8CAC583CAD1
:10055100F0A3C8C582C8CAC583CADFE9DEE780BE89
:0105E7000013
:10027300BB010689828A83E0225002E722BBFE0289
:09028300E32289828A83E49322BC
:10028C0075F008758200EF2FFFEE33FECD33CDCC29
:10029C0033CCC58233C5829BED9AEC99E5829840AC
:1002AC000CF582EE9BFEED9AFDEC99FC0FD5F0D689
:1002BC00E4CEFBE4CDFAE4CCF9A88222B800C1B9B3
:1002CC000059BA002DEC8BF084CFCECDFCE5F0CBF1
:1002DC00F97818EF2FFFEE33FEED33FDEC33FCEB2A
:1002EC0033FB10D703994004EB99FB0FD8E5E4F9E5
:1002FC00FA227818EF2FFFEE33FEED33FDEC33FCD2
:10030C00C933C910D7059BE99A4007EC9BFCE99AC5
:10031C00F90FD8E0E4C9FAE4CCFB2275F010EF2F0A
:10032C00FFEE33FEED33FDCC33CCC833C810D7070A
:10033C009BEC9AE899400AED9BFDEC9AFCE899F845
:0E034C000FD5F0DAE4CDFBE4CCFAE4C8F922D8
:0E035A00C3E49FFFE49EFEE49DFDE49CFC22B4
:10036800EB9FF5F0EA9E42F0E99D42F0E89C45F0EB
:010378002262
:00000001FF
