:10023E003F065B4F666D7D077F6F777C395E797108
:01024E0000AF
:1001DF00202A250106011E014B015D018801B8018E
:1001EF00EE020B024B029302BA0310037003DC04FE
:0D01FF0016049705260574062006E007B7D4
:10024F00438901758CFF758A9CD2A9D2AFD28C22BB
:1002100012024F12009A8F51E551F460F6EF9002EE
:100220003E93F4F580E55125E02425F8E6F5230812
:0E023000E6F524D200E4F54FF550D2AF80D5AC
:03000B00020123CC
:10012300C0E0C0F0C0D075D000C000C004C005C09E
:0301330006C007FC
:10013600758CFF758AA70522E52270020521AC237E
:10014600AD247E137F8812018AD3E5229FE5219E86
:10015600400B752100752200300002B2A70550E55C
:10016600507002054FB4E80BE54FB40306C200C257
:03017600A7C2AF6E
:10017900D007D006D005D004D000D0D0D0F0D0E040
:010189003243
:03020C00010800E6
:0B025F00EF1FAC0670011E4C70F62271
:10009A00E4F50975900FE590640F60777FE87E03B9
:1000AA0012025FE590640F606D75900FAF90EF24B8
:1000BA00F5601024FE601114601324077012E4F531
:1000CA0008800D7508018008750802800375080309
:1000DA007590F0AF90EF2450601124E0601124F085
:1000EA00601124707013850808800E7404800674E9
:1000FA00088002740C2508F508C3E509648094B2E7
:10010A005014E59064F0600E7FE87E0312025F05EA
:08011A000980E67508FFAF083B
:0101220022BA
:0300000002000EED
:0C000E00787FE4F6D8FD758151020055A2
:10018A00BC000BBE0029EF8DF084FFADF022E4CC59
:10019A00F875F008EF2FFFEE33FEEC33FCEE9DEC22
:1001AA00984005FCEE9DFE0FD5F0E9E4CEFD22ED68
:1001BA00F8F5F0EE8420D21CFEADF075F008EF2FB2
:1001CA00FFED33FD4007985006D5F0F222C398FDA3
:0501DA000FD5F0EA2240
:10001A00020210E493A3F8E493A34003F68001F2EA
:10002A0008DFF48029E493A3F85407240CC8C333E7
:10003A00C4540F4420C8834004F456800146F6DFB6
:10004A00E4800B01020408102040809001DFE47E66
:10005A00019360BCA3FF543F30E509541FFEE493AB
:10006A00A360010ECF54C025E060A840B8E493A372
:10007A00FAE493A3F8E493A3C8C582C8CAC583CA9D
:10008A00F0A3C8C582C8CAC583CADFE9DEE780BE55
:01020F0000EE
:00000001FF
