:1000EE0010087065726368696E2064657369676E67
:1000FE0065641B1877656C636F6D6520746F207473
:0F010E00686520776F726C64206F66206D637573
:0B016100EF1FAC0670011E4C70F62270
:10008F007F8012016CE4F53374082533F8E6FF1214
:10009F0001760533E533C3941040ED7FC012016C38
:1000AF00E4F53374182533F8E6FF1201760533E5CE
:1000BF0033C3941B40ED7F0712016C7F8012016CDC
:1000CF00E4F53374082533F8E6FF1201767F307EAE
:0F00DF00751201610533E533C3941040E680DCF0
:0801800012014812008F80FB00
:10011E00C2A58F807F017E0012012FD2A77F057EA0
:01012E0000D0
:10012F00D3EF9400EE9400400F7DC77C01DCFEDD21
:08013F00FAEF1F70EB1E80E8CF
:010147002295
:0A016C00C2A7C2A612011EC2A722FC
:0A017600C2A7D2A612011EC2A722E2
:100148007F3812016C7F0C12016C7F0612016C7FE4
:090158000112016C7F8002016CB0
:03000000020003F8
:0C000300787FE4F6D8FD75813302004AD6
:10000F00020180E493A3F8E493A34003F68001F286
:10001F0008DFF48029E493A3F85407240CC8C333F2
:10002F00C4540F4420C8834004F456800146F6DFC1
:10003F00E4800B01020408102040809000EEE47E63
:10004F00019360BCA3FF543F30E509541FFEE493B6
:10005F00A360010ECF54C025E060A840B8E493A37D
:10006F00FAE493A3F8E493A3C8C582C8CAC583CAA8
:10007F00F0A3C8C582C8CAC583CADFE9DEE780BE60
:01011D0000E1
:00000001FF
