:0300000002016694
:0C016600787FE4F6D8FD758113020118C3
:100148003F065B4F666D7D077F6F777C395E7971FF
:0101580000A6
:10011800E4F509120003E509B40120851011850FE3
:1001280010850E0F850D0E850C0D850B0C850A0BA1
:10013800E50890014893F50AE4F5091200A480D374
:1000A400E4FFEFB40800504D9000B3F82828730221
:1000B40000CB0200CF0200D70200DB0200E3020003
:1000C400E70200EF0200F3D2A28002C2A2D2A3D2BE
:1000D400A48022D2A28002C2A2C2A3D2A48016D239
:1000E400A28002C2A2D2A3C2A4800AD2A28002C267
:1000F400A2C2A3C2A4740A2FF8E6F5807D0A7C008C
:10010400ED1DAA0470011C4A70F6E4F5800FEF643B
:0301140008708FE1
:0101170022C5
:10000300E4F512F51375900FE590640F7003020089
:10001300A31201590513E51370020512E4F512F555
:1000230013E590640F607975090175900FAF90EF38
:1000330024F5601024FE601114601324077012E489
:10004300F508800D7508018008750802800375089E
:10005300037590F0120159AF90EF2450601124E022
:10006300601124F0601124707013850808800E74E9
:1000730004800674088002740C2508F508C3E51390
:1000830094F4E51294015013E59064F0600D1201AD
:10009300590513E51370E6051280E2E4F512F51332
:0100A300223A
:0C0159007F017E267D82DDFEDEFADFF6EF
:010165002277
:00000001FF
