:030000000208BF34
:0C08BF00787FE4F6D8FD75810802090678
:1008000018301C1020401C10181020101C1018400C
:100810001C2020201C2018202080FF20301C1018B5
:100820002015201C202020264020202B20262020A0
:10083000203080FF20201C101810202026202B2084
:1008400030202B4020201C101810202026202B2088
:1008500030202B4020301C10182015201C20202078
:10086000264020202B2026202020308020301C10E5
:1008700020101C10202026202B2030202B4020155B
:100880001F0520101C10202026202B2030202B405C
:1008900020301C10182015201C202020264020204D
:1008A0002B2026202020303020301C1018401C2007
:0F08B000202026401360182015401340188000A8
:0309B70001080034
:03000B000209AE39
:0909AE00758CD8758AEF1508322A
:10099C00EF75F003A4FFAEF0EF1F70011E144E7044
:0109AC00F753
:0109AD002227
:0309BB00DFFE223A
:10094B00E4FD53890F438901758CD8758AEF75A81F
:10095B0082ED90080093FE7008FD7FE81209BB80C2
:10096B00F0BEFF0A0D7F641209BBC28C80E3AF059A
:10097B000DEF90080093FCAF050DEF93F508D28CAB
:10098B00E5086009B295AF0412099C80F3C28C8014
:01099B00C09B
:1008CB0002094BE493A3F8E493A34003F68001F2EF
:1008DB0008DFF48029E493A3F85407240CC8C3332E
:1008EB00C4540F4420C8834004F456800146F6DFFD
:1008FB00E4800B01020408102040809009B7E47ECD
:10090B00019360BCA3FF543F30E509541FFEE493F1
:10091B00A360010ECF54C025E060A840B8E493A3B8
:10092B00FAE493A3F8E493A3C8C582C8CAC583CAE3
:10093B00F0A3C8C582C8CAC583CADFE9DEE780BE9B
:0109BA00003C
:00000001FF
