:10032200303132333435363738394741533A005356
:0403320045543A00F4
:060364000111000110145C
:040336007FE87E03DB
:0B033A00EF1FAC0670011E4C70F62295
:03036B000203503A
:03036E0002035A2D
:030371000202F590
:1001980020B31912033620B3100511E4F50FE51149
:1001A800B40206E4F511750F0130B3FDE5116401E1
:1001B800703420A11712033620A10E0510C3E510D4
:1001C800648094E4400375106430A1FD20A21712E6
:1001D800033620A20E1510D3E510648094805003D6
:0701E800E4F51030A2FD2236
:1001EF00E4F508E5082480FF12036BE50890032C63
:1001FF0093FF12036E0508E508C3940440E5E4F588
:10020F0008E50824C0FF12036BE50890033193FF44
:0C021F0012036E0508E508C3940440E5D6
:01022B0022B0
:10000300E51275F064842430F508E51275F0648414
:10001300AFF0EF75F00A842430F509EF75F00A8428
:10002300E5F02430F50AE51075F06412012124305F
:10003300F50BE51075F064120121AFF0EF75F00ACE
:100043001201212430F50CEF75F00A120121AFF0F3
:10005300EF2430F50DE4F50EE50E2484FF12036B57
:100063007408250EF8E6FF12036E050EE50EC39421
:100073000340E5E4F50EE50E24C4FF12036B740B95
:10008300250EF8E6FF12036E050EE50EC39403403A
:01009300E587
:010094002249
:10030E007D64AF051DEF600BB2957F647E00120316
:03031E003A80EF33
:0103210022B9
:10027A00AF10EF3395E0FEC3E5129FEE6480F87489
:10028A008098400AE50FB40105D29002030EC2908D
:03029A00D29522D8
:10029D00D290D2951203711201EF12019812000340
:1002AD0012027A7F941202DC7C007D281201438FAA
:0302BD001280E7C5
:0B034500C2B6D2B5D2B4D2B6C2B52207
:1002C000C2B6E4FEEFC4131313540124FF92B4EF3B
:0B02D00025E0FFC2B6D2B60EBE08E962
:0102DB002200
:10025600E4FFFEC2B6FDFCEF25E0FFEE33FED2B6AC
:10026600C2B6A2B7E43342070DBD00010CED640C23
:030276004C70E4E5
:010279002262
:1002DC00C2B6C2B51202C07F06DFFED2B60000C2A3
:0802EC00B60000120256D2B563
:0102F40022E7
:10022C00C2A58F807F017E0012023DD2A77F057E82
:01023C0000C1
:10023D00D3EF9400EE9400400F7DC77C01DCFEDD12
:08024D00FAEF1F70EB1E80E8C0
:010255002286
:0A035000C2A7C2A612022CC2A72207
:0A035A00C2A7D2A612022CC2A722ED
:1002F5007F381203507F0C1203507F061203507F84
:09030500011203507F8002035035
:0300000002009566
:0C009500787FE4F6D8FD7581120200DCD3
:10012100C2D530F707B2D563F0FF05F030E70CB266
:10013100D5F4048463F0FF05F080018430D502F426
:02014100042296
:10014300BC000BBE0029EF8DF084FFADF022E4CCA0
:10015300F875F008EF2FFFEE33FEEC33FCEE9DEC69
:10016300984005FCEE9DFE0FD5F0E9E4CEFD22EDAF
:10017300F8F5F0EE8420D21CFEADF075F008EF2FF9
:10018300FFED33FD4007985006D5F0F222C398FDEA
:050193000FD5F0EA2287
:1000A10002029DE493A3F8E493A34003F68001F2D6
:1000B10008DFF48029E493A3F85407240CC8C33360
:1000C100C4540F4420C8834004F456800146F6DF2F
:1000D100E4800B0102040810204080900364E47E58
:1000E100019360BCA3FF543F30E509541FFEE49324
:1000F100A360010ECF54C025E060A840B8E493A3EB
:10010100FAE493A3F8E493A3C8C582C8CAC583CA15
:10011100F0A3C8C582C8CAC583CADFE9DEE780BECD
:01036A000092
:00000001FF
