:10047500101520202074656D706572747572792071
:0E04850020200A093031323334353637383909
:0604E800D2B77F017E0087
:0B04EE00EF1FAC0670011E4C70F622E0
:03052800020514B5
:090508001201C874092FF8E6FF86
:0305110002051EC2
:03052B000204CFF8
:10044E001204E8C2B77F507E001204EED2B77F05C9
:10045E007E001204EEC2B77F147E001204EED2B7F5
:07046E007F237E000204EE73
:0204B200AD0794
:1004B400E4FBC2B7ED1392B7EDC313FD7F087E00D2
:0A04C4001204EE1204E80BBB08E876
:0104CE00220B
:10049400E4FBC2B7EDC313FDD2B730B70343058005
:0D04A4007F087E001204EE0BBB08E7AF05D9
:0104B1002228
:1003E50012044E7FCC1204B27F441204B27F647EA5
:1003F500001204EE12044E7FCC1204B27FBE12042A
:10040500B21204948F13120494EFC454F0FF548075
:0E041500F514E51354F0C4540F2FFF53130FCA
:0104230022B6
:10022B00AC13E4120113E4FBFA7980783D1200035E
:10023B008F2C8E2B8D2A8C297F007E407D1C7C463B
:10024B00AB2CAA2BA92AA8291200031201478E272F
:10025B008F287F80120528E4F525F52674152526B1
:10026B00F8E6FF1205110526E52670020525C39455
:10027B0010E525940040E57FC3120528E514B480F2
:10028B00107F2D1205111508E508F44480F5088040
:10029B00087F2B120511850808E50875F064842486
:1002AB0009F8E6FF120511E50875F06484E5F075B1
:1002BB00F00A842409F8E6FF120511E50875F064CD
:1002CB0084E5F075F00A84740925F0F8E6FF120551
:1002DB00117F2E120511AE27AF287C037DE8120586
:1002EB0008AE27AF287C037DE81201C87E007F642F
:1002FB00CFCDCFCECCCE1205087FDF1205117F43B9
:03030B00020511D7
:0F04F900EF1FAC0670011E4C6004B29080F2221F
:10039A00C29012052B1203E58F0812022BE508D32F
:1003AA00941B400DE508941D50077F017E0012043E
:1003BA00F9E508D39417400DE508941850077F0A09
:1003CA007E001204F9E508D3941D40C9E508942378
:0B03DA0050C37F647E001204F980BA5B
:10042400C2A58F807F017E00120435D2A77F057E8E
:0104340000C7
:10043500D3EF9400EE9400400F7DC77C01DCFEDD18
:08044500FAEF1F70EB1E80E8C6
:01044D00228C
:0A051400C2A7C2A6120424C2A72247
:0A051E00C2A7D2A6120424C2A7222D
:1004CF007F381205147F0C1205147F061205147F56
:0904DF00011205147F80020514CE
:10000300EC4D6011E8497017ED33EC3304600DE4F7
:10001300FCFFFEFD22E933E8330470F80201B3125A
:10002300017E58046009E4CC24815006285009025B
:1000330001BD2840030201BAC0E0EB4A7044B98015
:1000430006D0E0FB0201A9EF4E701CBD8008EBFF58
:10005300EAFEE9FD80EBE98DF0A4FEE5F00200EC99
:10006300E9CDF9EAFEEBFFEF89F0A4FCE5F0CE89D8
:10007300F0A42EFFE435F0CD89F0A42DFEE435F095
:100083008067EF4E7005BD80D780C3EF8BF0A4ACC3
:10009300F0EE8BF0A42CFCE435F0F8EF8AF0A42CFE
:1000A300E5F038FCE433CB8DF0A42CFCE5F03BF811
:1000B300EE8AF0A42CFCE5F038F8E433CF89F0A401
:1000C3002CFCE5F038CF3400CE89F0A42FFFE5F007
:1000D3003EFEE433C98DF0A42EFEE5F039CD8AF05F
:1000E300A42FFFE5F03EFEE43DFD33D0E0FB5007D7
:1000F3000BBB000F0201BDEC2CFCEF33FFEE33FE14
:06010300ED33FD02019541
:1001090075F020800E75F010800575F0087D007E71
:10011900007F003392D530D50312021DEC33401015
:10012900EF33FFEE33FEED33FDEC33FCD5F0ED227A
:0E013900E5F0247EA2D513CC92E7CDCEFF22B6
:10014700EDD2E7CD33EC3392D524814006E4FFFEB0
:10015700FDFC22FCE4CFCECDCC24E0501174FF800F
:10016700EDC3CC13CCCD13CDCE13CECF13CF0470AC
:07017700F030D5DE02021D8D
:10017E00E9D2E7C933E833F892D5EDD2E7CD33ECC7
:07018E0033FC5002B2D52240
:10019500EC30E7100FBF000C0EBE00080DBD0004CB
:1001A5000BEB6014A2D5EB13FCED92E7FD2274FF77
:1001B500FCFDFEFF22E480F8A2D574FF13FC7D80D0
:0301C500E480EFE4
:0300000002030EEA
:0C030E00787FE4F6D8FD75812C020355C1
:1001C800BC000BBE0029EF8DF084FFADF022E4CC1B
:1001D800F875F008EF2FFFEE33FEEC33FCEE9DECE4
:1001E800984005FCEE9DFE0FD5F0E9E4CEFD22ED2A
:1001F800F8F5F0EE8420D21CFEADF075F008EF2F74
:10020800FFED33FD4007985006D5F0F222C398FD64
:050218000FD5F0EA2201
:0E021D00C3E49FFFE49EFEE49DFDE49CFC22F2
:10031A0002039AE493A3F8E493A34003F68001F25C
:10032A0008DFF48029E493A3F85407240CC8C333E4
:10033A00C4540F4420C8834004F456800146F6DFB3
:10034A00E4800B0102040810204080900475E47ECA
:10035A00019360BCA3FF543F30E509541FFEE493A8
:10036A00A360010ECF54C025E060A840B8E493A36F
:10037A00FAE493A3F8E493A3C8C582C8CAC583CA9A
:10038A00F0A3C8C582C8CAC583CADFE9DEE780BE52
:010493000068
:00000001FF
