:1000F2003F065B4F666D7D077F6F777C395E797156
:0101020000FC
:0B011F00EF1FAC0670011E4C70F622B2
:10010300438901758CD8758AF0D2A9D2AFD28C22DB
:10000E00E4FDEDB40800504D90001DF82828730251
:10001E00003502003902004102004502004D020087
:10002E005102005902005DD2A28002C2A2D2A3D216
:10003E00A48022D2A28002C2A2C2A3D2A48016D2CF
:10004E00A28002C2A2D2A3C2A4800AD2A28002C2FD
:10005E00A2C2A3C2A4740B2DF8E6F5807F647E00C5
:0C006E0012011FE4F5800DED640870968F
:01007A002263
:10007B00E50A75F00A849000F293F50BE50A75F02A
:10008B000A84E5F093F50C750D40E50975F00A84CB
:10009B0093F50EE50975F00A84E5F093F50F7510ED
:1000AB0040E50875F00A8493F511E50875F00A84AC
:0600BB00E5F093F51222AE
:0B012A0012010312007B12000E80F88F
:03000B000200C12F
:1000C100C0E0C0D0758CD8758AF00508E508C394E6
:1000D1006440197508000509E509943C400E75094D
:1000E10000050AE50A943C4003750A00D0D0D0E02F
:0100F10032DC
:03000000020113E7
:0C011300787FE4F6D8FD75811202012A05
:00000001FF
