:1001AD0011184C43442044657369676E206F6620B7
:1001BD00546D000B0D30313233343536373839004C
:0B01F700EF1FAC0670011E4C70F622DA
:0300030002020DE9
:03000600020217DC
:030221000201CE09
:1001E700758901758CFC758A18D28CD2A9D2AF2279
:10009A00E50C75F00A84240DF8E6F529E50C75F0EF
:1000AA000A84740D25F0F8E6F52A752B3AE50B75E6
:1000BA00F00A84240DF8E6F52CE50B75F00A847431
:1000CA000D25F0F8E6F52D752E3AE50A75F00A8445
:1000DA00240DF8E6F52FE50A75F00A84740D25F06B
:0500EA00F8E6F53022EC
:1000EF0012009A7F80120003E4F53174182531F85D
:1000FF00E6FF1200060531E531C3941040ED7FC4D1
:10010F00120003AF29120006AF2A120006AF2B12FE
:10011F000006AF2C120006AF2D120006AF2E1200F4
:0B012F0006AF2F120006AF30020006E2
:0B0202001202211201E71200EF80FB46
:03000B0002013AB5
:04013A00C0E0C0D091
:10013E00758CFC758A180509E5097002050864E8D6
:10014E007004E50864037028F508F509050AE50A48
:10015E00B43C1D750A00050BE50BB43C13750B0082
:10016E00050CE50CB43C09750C00750A00750B0006
:05017E00D0D0D0E032FA
:10018300C2A58F807F017E00120194D2A77F057ED6
:01019300006B
:10019400D3EF9400EE9400400F7DC77C01DCFEDDBC
:0801A400FAEF1F70EB1E80E86A
:0101AC002230
:0A020D00C2A7C2A6120183C2A722F5
:0A021700C2A7D2A6120183C2A722DB
:1001CE007F3812020D7F0C12020D7F0612020D7F78
:0901DE000112020D7F8002020DE6
:0300000002000EED
:0C000E00787FE4F6D8FD758131020055C2
:10001A00020202E493A3F8E493A34003F68001F2F8
:10002A0008DFF48029E493A3F85407240CC8C333E7
:10003A00C4540F4420C8834004F456800146F6DFB6
:10004A00E4800B01020408102040809001ADE47E98
:10005A00019360BCA3FF543F30E509541FFEE493AB
:10006A00A360010ECF54C025E060A840B8E493A372
:10007A00FAE493A3F8E493A3C8C582C8CAC583CA9D
:10008A00F0A3C8C582C8CAC583CADFE9DEE780BE55
:0101CD000031
:00000001FF
