:1007E2002D002000534554483A2020204300534511
:1007F200544C3A202020430054656D703A2020204A
:1008020020204300534554483A2020005345544C7D
:040812003A20200068
:09095A0001171601162801140111
:1003C40012060C8E088F09850818850919C3E508DB
:1003D400648094805013C3E49509F509E49508F505
:1003E400087BFF7A0779E280067BFF7A0779E4E4E9
:1003F400FD7F0712049EAE08AF097C007D641202E3
:1004040015EF2430F50AAE08AF097C007D641202B2
:1004140015AA04AB057D0A7C00AF03AE02120215D7
:10042400EF2430F50B750C2E7D0A7C00AF03AE0271
:10043400120215ED2430F50DE4F50EFB7A00790A6D
:10044400FD7F0812049EE51675F00A1201C82430D7
:10045400F50AE51675F00A1201C8AFF0EF2430F57D
:100464000BE4F50CFB7A00790A7D017F0512049EEA
:10047400E51775F00A1201C82430F50AE51775F07E
:100484000A1201C8AFF0EF2430F50BE4F50CFB7A47
:0A04940000790A7D017F0E02049E2C
:020722008F0C3A
:10072400E514602530B40630B50320B21C7FE87EA2
:100734000312094FE4F51420B2037F012220B4030D
:100744007F022220B50F7F032230B40930B5063072
:0E075400B203751401E50C60037514017F00FB
:010762002274
:1002AE00E4FF1207228F08E5086401704E0515124F
:1002BE000964E515B4010A7BFF7A0779E6E4FD804F
:1002CE000EE515B4020C7BFF7A0779F07D01E4FF91
:1002DE008026E4F5157BFF7A0779FAFD7F0212047A
:1002EE009E7BFF7A0879067D01E4FF12049E7BFF58
:1002FE007A08790E7D017F0912049EE5156401705E
:10030E0056E50824FD601304701E0516C3E5166439
:10031E008094D04013751650800E1516D3E51664D2
:10032E008094805003E4F516E51675F00A1201C8A4
:10033E002430F509E51675F00A1201C8AFF0EF2466
:10034E0030F50AE4F50BFB7A007909FD7F061204FD
:10035E009EAD16E4FF805BE51564027058E5082437
:10036E00FD601304701E0517C3E517648094D0401A
:10037E0013751750800E1517D3E5176480948050AF
:10038E0003E4F517E51775F00A1201C82430F509D4
:10039E00E51775F00A1201C8AFF0EF2430F50AE444
:1003AE00F50BFB7A0079097D017F0612049EAD17CD
:0503BE007F021208E1BE
:0103C3002217
:1008FA00750832AF081508EF600BB2957F0A7E00C3
:05090A0012094F80EE10
:01090F0022C5
:10065800AF16EF3395E0FE7C007D0A120203D3E566
:10066800199FE5189E4008D2A4D290D294801DAF5D
:1006780017EF3395E0FE7C007D0A120203C3E519EB
:100688009FE5189E5009D2A4C290C2940208FAC2EB
:0606980090C2A4D29422DE
:1005B6007FFF120868EF64126017AD16E4FF120899
:1005C600E1AD177F021208E17D127FFF1208E1807C
:1005D6000EE4FF1208688F167F021208688F177BD9
:1005E600FF7A0779FAE4FD7F0212049E7BFF7A0800
:1005F60079067D01E4FF12049E7BFF7A08790E7D61
:06060600017F0902049EC1
:1008C600C290C2A4D29412088A1205B6E515700326
:0B08D6001203C41202AE12065880F19B
:0B094F00EF1FAC0670011E4C70F6227A
:10069E00C2A58B807F017E001206C7D2A77F057E82
:1006AE00001206C7C2A7EBC454F0F5807F017E008E
:0906BE001206C7D2A77F057E00D9
:1006C700D3EF9400EE9400400F7DC77C01DCFEDD84
:0806D700FAEF1F70EB1E80E832
:0106DF0022F8
:0C094300AB07C2A7C2A612069EC2A722E4
:0A091000AB10AA11A9121201EAFFB0
:0C091A00AB07C2A7D2A612069EC2A722FD
:10088A007F321209437F281209437F0C1209437FE2
:0E089A00061209437F011209437F80020943C1
:0A0964007F011209437F800209435E
:08049E008F0F8B108A118912E7
:1004A600E4F513EDC39401503DAB10AA11A9121245
:1004B60001EA606FC37410950FC36480F8E5136496
:1004C6008098E51350062480250F8004250F24B05C
:1004D600FF12094312091074012512F512E43511B1
:1004E600F511051380C3AB10AA11A9121201EA6017
:1004F60032C37410950FC36480F8E513648098E5E1
:1005060013500624C0250F8004250F2470FF1209FE
:100516004312091074012512F512E43511F511057F
:030526001380C37C
:0105290022AF
:1008A800D3EF9400EE940040147D6E7C00ED1D7033
:0D08B800011CED4C70F7EF1F70E61E80E391
:0108C5002210
:10081600C2B77F467E00EF1FAC0670011E4C70F615
:10082600D2B7E4FEFF30B7110FBF00010ED3EF942D
:0B08360088EE941340EF7F00227F014A
:010841002294
:0C06E0001208167F017E001208A87FCCD3
:1006EC00E4FBFAC2B70512E51270020511EF139282
:1006FC00B7751100751206E5121512AC11700215C2
:10070C00114C70F3D2B7EFC313FF0BBB00010AEB14
:05071C0064084A70CEE4
:0107210022B5
:1007A4007D087C00C2B70FBF0000D2B70FBF0000A6
:1007B4000FBF0000A2B7E433C43333335480FBE9E2
:1007C400C3134BF97E007F04EF1FAA0670011E4A73
:0D07D40070F6ED1D70011CED4C70C9AF01F9
:0107E10022F5
:080978001206E07F440206ECC8
:080980001206E07FBE0206EC46
:10060C00E4F50F1209781209801207A48F10120753
:10061C00A4EFD39407400B6307FF6310FFE4F50FBF
:10062C008003750F01EFFEE510FFAD07AC06EC1271
:10063C00010EE4FBFA7920783F120003120147E522
:0B064C000F600122C3E49FFFE49EFE4C
:010657002280
:0509350012093AD2A1F5
:08093A007F017E02DEFEDFFA00
:010942002292
:0F092600D2A0120935C2A012093AC2A102093AA1
:0A096E00C2A0120935D2A002093A16
:02076300AD07E0
:10076500E4FBFAEDC4131313540124FF92A0ED2505
:10077500E0FD120935C2A112093A0BBB08E5D2A06A
:1007850012093AD2A130A00F0AEAD394C840F6C2A2
:0E079500A112093A7F0022C2A112093A7F0187
:0107A3002233
:10084200E4FDFCD2A012093AD2A112093AEC25E049
:10085200FCA2A0E433420412093AC2A112093A0DE1
:05086200BD08E5AF0434
:01086700226E
:1008E100AC05A9071209267FA0120763AF01120701
:0908F10063AF0412076302096EF3
:02086800AC07DB
:10086A001209267FA0120763AF0412076312092632
:0F087A007FA1120763120842AD0712096EAF0586
:01088900224C
:10000300EC4D6011E8497017ED33EC3304600DE4F7
:10001300FCFFFEFD22E933E8330470F80201B3125A
:10002300017E58046009E4CC24815006285009025B
:1000330001BD2840030201BAC0E0EB4A7044B98015
:1000430006D0E0FB0201A9EF4E701CBD8008EBFF58
:10005300EAFEE9FD80EBE98DF0A4FEE5F00200EC99
:10006300E9CDF9EAFEEBFFEF89F0A4FCE5F0CE89D8
:10007300F0A42EFFE435F0CD89F0A42DFEE435F095
:100083008067EF4E7005BD80D780C3EF8BF0A4ACC3
:10009300F0EE8BF0A42CFCE435F0F8EF8AF0A42CFE
:1000A300E5F038FCE433CB8DF0A42CFCE5F03BF811
:1000B300EE8AF0A42CFCE5F038F8E433CF89F0A401
:1000C3002CFCE5F038CF3400CE89F0A42FFFE5F007
:1000D3003EFEE433C98DF0A42EFEE5F039CD8AF05F
:1000E300A42FFFE5F03EFEE43DFD33D0E0FB5007D7
:1000F3000BBB000F0201BDEC2CFCEF33FFEE33FE14
:06010300ED33FD02019541
:1001090075F020800E75F010800575F0087D007E71
:10011900007F003392D530D50312024BEC334010E7
:10012900EF33FFEE33FEED33FDEC33FCD5F0ED227A
:0E013900E5F0247EA2D513CC92E7CDCEFF22B6
:10014700EDD2E7CD33EC3392D524814006E4FFFEB0
:10015700FDFC22FCE4CFCECDCC24E0501174FF800F
:10016700EDC3CC13CCCD13CDCE13CECF13CF0470AC
:07017700F030D5DE02024B5F
:10017E00E9D2E7C933E833F892D5EDD2E7CD33ECC7
:07018E0033FC5002B2D52240
:10019500EC30E7100FBF000C0EBE00080DBD0004CB
:1001A5000BEB6014A2D5EB13FCED92E7FD2274FF77
:1001B500FCFDFEFF22E480F8A2D574FF13FC7D80D0
:0301C500E480EFE4
:0300000002052ACC
:0C052A00787FE4F6D8FD75811902057198
:1001C800C2D530F707B2D563F0FF05F030E70CB2BF
:1001D800D5F4048463F0FF05F080018430D502F47F
:0201E8000422EF
:1001EA00BB010689828A83E0225002E722BBFE0213
:0901FA00E32289828A83E4932246
:10020300EF8DF0A4A8F0CF8CF0A428CE8DF0A42E0F
:02021300FE22C9
:10021500C2D5EC30E709B2D5E4C39DFDE49CFCEE04
:1002250030E715B2D5E4C39FFFE49EFE120259C321
:10023500E49DFDE49CFC800312025930D507C3E41C
:060245009FFFE49EFE2273
:0E024B00C3E49FFFE49EFEE49DFDE49CFC22C4
:100536000208C6E493A3F8E493A34003F68001F20D
:1005460008DFF48029E493A3F85407240CC8C333C6
:10055600C4540F4420C8834004F456800146F6DF95
:10056600E4800B010204081020408090095AE47EC2
:10057600019360BCA3FF543F30E509541FFEE4938A
:10058600A360010ECF54C025E060A840B8E493A351
:10059600FAE493A3F8E493A3C8C582C8CAC583CA7C
:1005A600F0A3C8C582C8CAC583CADFE9DEE780BE34
:010963000093
:10025900BC000BBE0029EF8DF084FFADF022E4CC89
:10026900F875F008EF2FFFEE33FEEC33FCEE9DEC52
:10027900984005FCEE9DFE0FD5F0E9E4CEFD22ED98
:10028900F8F5F0EE8420D21CFEADF075F008EF2FE2
:10029900FFED33FD4007985006D5F0F222C398FDD3
:0502A9000FD5F0EA2270
:00000001FF
