:1001B7003F065B4F666D7D077F6FFEFDFBF7EFDF49
:1001C700BF7F3F065B4F666D7D077F6F777C395E2C
:0301D7007971003B
:0B01FB00EF1FAC0670011E4C70F622D6
:10000E001202061201638F16E51624FE60161460A6
:10001E001F1460282403702E0517E5176418702628
:10002E00F51780221517E517B4FF1B7517178016E5
:10003E000515E515B43C0FE4F515800A1515E51503
:10004E00B4FF0375153BE51775F00A849001B7935D
:10005E00F50DE51775F00A84E5F093F50E750F4072
:10006E00E51575F00A8493F510E51575F00A84E52B
:10007E00F093F511751240E50C75F00A8493F513A3
:10008E00E50C75F00A84E5F093F51412009F02005A
:01009E001150
:03000300DFFE22FB
:1001DA00AE07AF061EEF600C7FF51200037FF51223
:0501EA00000380EE227D
:10009F00E4FDEDB40800504D9000AEF8282873022F
:1000AF0000C60200CA0200D20200D60200DE020021
:1000BF00E20200EA0200EEC2A28002D2A2C2A3C2F2
:1000CF00A48022C2A28002D2A2D2A3C2A48016C24E
:1000DF00A28002D2A2C2A3D2A4800AC2A28002D25C
:1000EF00A2D2A3D2A4740D2DF8E6F5807F647E0012
:0C00FF001201FBE4F5800DED6408709622
:01010B0022D1
:0A020600438901D2AFD2A9D28C22A5
:03000B0002010CE3
:04010C00C0E0C0D0BF
:10011000758CF8758A30050BE50B7002050A640AC8
:10012000450A7006F50AF50BD2000509E5097002CB
:100130000508B4F429E508B4012475080075090020
:10014000050CE50CB43C17750C000515E515B43C21
:0E0150000D7515000517E517B4180375170097
:05015E00D0D0D0E0321A
:10016300E5B0F4604C7F0A1201DAE5B0F46042AF07
:10017300B0E5B0B4FFFBEF2481603024C0602924D4
:10018300E0602224F0601B24F8601424FC600D243A
:10019300FE60061470187F01227F02227F03227FF4
:1001A30004227F05227F06227F07227F08227F0009
:0301B300227F00A8
:0101B6002226
:030000000201EF0B
:0C01EF00787FE4F6D8FD75812002000E38
:00000001FF
