:08078F0090001BEEF0A3EFF057
:1007970090001BE0FEA3E0FFD3EF9400EE9400402F
:1007A7004290001E74C7F090001EE0FFEFD3940044
:1007B700402190001D7401F090001DE0FFEFD394DD
:1007C70000400890001DE014F080ED90001EE0143A
:1007D700F080D490001CE024FFF090001BE034FF71
:0307E700F080ADF2
:0107EA0022EC
:1009F400900034EFF0C2A7C2A6C2A5900034E0FF75
:100A04008F807F017E0012078FD2A77F057E0012A0
:050A1400078FC2A722BC
:100A1900900035EFF0C2A7D2A6C2A5900035E0FF3D
:100A29008F807F017E0012078FD2A77F057E00127B
:050A3900078FC2A72297
:10036F0090001FEFF0900020EBF0A3EAF0A3E9F06C
:10037F0090001FE0FFEFD3940F504190001FE0FF5C
:10038F00EF540FFFEF2480FF1209F4900020E0FBE1
:10039F00A3E0FAA3E0F91206C0FFEF605F90002020
:1003AF00E0FBA3E0FAA3E0F91206C0FF120A1990CE
:1003BF000021E475F0011206D980D02290001FE0D1
:1003CF00FFEF540FFFEF24C0FF1209F4900020E05D
:1003DF00FBA3E0FAA3E0F91206C0FFEF601E900046
:1003EF0020E0FBA3E0FAA3E0F91206C0FF120A19FE
:0D03FF00900021E475F0011206D980D02293
:100AB2007F381209F47F0C1209F47F061209F47FC1
:0A0AC200011209F47F801209F422EA
:10040C002050656368696E20536369656E6365206F
:10041C00002020202057454C434F4D4521202020C3
:10042C002000556E6C6F636B003C004368616E6717
:10043C00652050617373776F726400200050617394
:10044C007320576F72643A202000202020205745DB
:10045C004C434F4D4521004572726F722030312153
:10046C0000496E7075742050617373576F72643AE3
:10047C00004572726F72203031004E6577205061EA
:10048C007373576F72643A002020202020204F4B4A
:0C049C0021004572726F72203032210086
:100A7B00410000064A00100808080808080000009A
:070A8B000041000100C1025F
:1001E2007F011209F4900026E4F0900000E0FF7E07
:1001F20000EF2402FFEE3400FE900026E0FD7C00BA
:10020200C3ED9FEE6480F8EC64809850289000263D
:10021200E0FF120977EF2430FF900027EFF0900003
:1002220027E0FF120A197FE87E03120A9790002640
:10023200E004F080B57FE87E03120A97120AB27FCB
:10024200E87E03120A9790000DE4F090000FE4F0AC
:1002520090000EE4F012010D1202AA90001AEFF0C3
:1002620090000DE0FFEF12070502840002890102EF
:100272008E02029303029804029D0502A206000068
:10028200025A1209A580D11208D580CC12072B8000
:10029200C7120ACC80C2120AFB80BD12090D80B8B7
:0702A20012089980B380B13E
:0102A9002232
:1009A500120AB27BFF7A04790C7F0012036F7BFF7A
:1009B5007A04791D7F1012036F1202AAEFB4FF08A3
:0909C50090000D7401F080F12294
:1008D5007F011209F47BFF7A04792E7F0012036FE2
:1008E5007BFF7A0479357F0F12036F7BFF7A0479DA
:1008F500377F1012036F7BFF7A0479477F1F12033E
:080905006F90000D7402F02256
:10072B0090001AE0FFEF640B604790001AE0FFEFB8
:10073B006401600A90001AE0FFEF64097045B20291
:10074B002002177BFF7A0479357F0F12036F7BFF33
:10075B007A0479477F1F12036F227BFF7A04794754
:10076B007F0F12036F7BFF7A0479357F1F12036FA4
:10077B002220020790000D7403F02290000D7405E7
:04078B00F0C2022294
:100ACC0090000D7404F090000CE4F0120AB27BFF5D
:0A0ADC007A0479497F0012036F22AB
:100AFB00C20312000330010690000D7406F0C20110
:010B0B0022C7
:10090D0090000FE0FFEF120705092C0009300109D7
:10091D003402093803093C0409400500000943125B
:10092D000A5F22120B0C22120B2D221208452212E5
:07093D000A3E221204A82269
:1008990012064E300022120AB27BFF7A0479567F83
:1008A9000012036FC2A27F607EEA120A977F607E00
:1008B900EA120A97D2A2800E120AB27BFF7A047951
:0C08C900637F0012036F90000DE4F0222A
:100A5F007F011209F47BFF7A04796D7F0012036F17
:0C0A6F0090000F7401F090000CE4F022E5
:100B0C00C20312000330010890000F7402F0C201FE
:010B1C0022B6
:0A0B2D0012064E90000F7403F02230
:1008450020003790000EE0FFEFC394035021900085
:100855000EE004F0120AB27BFF7A04797D7F001264
:10086500036F7F207E4E120A9790000FE4F02290CE
:10087500000EE4F090000DE4F022120AB27BFF7A3C
:100885000479867F0012036F90000CE4F090000F4E
:040895007404F022D5
:100A3E00D20312000330011890000F7405F0C201AA
:100A4E007F011209F47BFF7A0479947F0012036F01
:010A5E002275
:1004A80090000CE0FF900000EFF0900001E0FD7F6D
:1004B800001209CE7F647E00120A97900000E0FDCA
:1004C8007F011209CE7F647E00120A97900037E4FC
:1004D800F0900000E0FF900037E0FEEEC39F504E22
:1004E800900037E0FF74022FF582E43400F583E0D2
:1004F800FF900037E0FE74102EF582E43400F58397
:10050800EFF0900037E0FFEF2402FF900037E0FEA5
:1005180074022EF582E43400F583E0FD1209CE7FE3
:10052800647E00120A97900037E004F080A39000E0
:080538000FE4F090000DE4F067
:010540002298
:10010D007F00120977900001EFF0900001E0FFEF02
:10011D0070759000017401F07D017F001209CE7F92
:10012D00647E00120A977D067F011209CE7F647EE0
:10013D0000120A97900038E4F0900000E0FF900064
:10014D0038E0FEEEC39F503F900038E0FFEF2402F1
:10015D00FF7D081209CE900038E0FF74022FF58262
:10016D00E43400F583E0FF900038E0FE74102EF5C6
:10017D0082E43400F583EFF07F647E00120A9790DD
:10018D000038E004F080B27F00120977900001EF93
:10019D00F07F01120977900000EFF0900038E4F045
:1001AD00900000E0FF900038E0FEEEC39F502590D8
:1001BD000038E0FFEF2402FF120977900038E0FECF
:1001CD0074102EF582E43400F583EFF0900038E0E2
:0401DD0004F080CCDE
:0101E10022FB
:1000030090001AE0FFEF640B70030200E590001A02
:10001300E0FFEFC3940A505F90001AE0FF90000CDA
:10002300E0FE74022EF582E43400F583EFF09000D5
:100033000CE004F07FC01209F4900039E4F0900062
:100043000CE0FF900039E0FEEEC39F502A20030727
:100053007F2A120A198018900039E0FF74022FF5E5
:1000630082E43400F583E0FFEF2430FF120A199095
:100073000039E004F080C790001AE0FFEF640A60E3
:100083000302010C90000CE0FFEF600890000CE00D
:1000930014F0800590000DE4F07FC01209F4900085
:1000A30039E4F090000CE0FF900039E0FEEEC39FCE
:1000B300502A2003077F2A120A198018900039E07A
:1000C300FF74022FF582E43400F583E0FFEF243060
:1000D300FF120A19900039E004F080C77F20120A4A
:1000E300192290000CE0FFEF701D90000DE4F07FEB
:1000F300011209F47BFF7A04799E7F0012036F7F5C
:09010300107E27120A9722D20196
:01010C0022D0
:10064E00900029E4F090000CE0FF900000E0FEEE38
:10065E006F705C900028E4F0900000E0FF9000289E
:10066E00E0FEEEC39F504A900028E0FF74022FF583
:10067E0082E43400F583E0FF900028E0FE74102E33
:10068E00F582E43400F583E0FEEE6F6005C20022D1
:10069E008002D200900028E0FF74022FF582E4342D
:1006AE0000F58374FFF0900028E004F080AA22C2C7
:0106BE00003B
:0106BF002218
:040A920041003B00E4
:100A970090002AEEF0A3EFF090002A74FF75F0FFA4
:0B0AA7001206EFAFF0FEEF4E70EE22E3
:1002AA0090003AE4F075900FE590640F7003020332
:1002BA00637FE87E03120A97E590640F70030203D6
:1002CA006975900FAF90EF12070502E40702EB0B76
:1002DA0002F30D02FB0E0000030190003BE4F080E4
:1002EA001690003B7401F0800E90003B7402F0807F
:1002FA000690003B7403F07590F0AF90EF1207057B
:10030A00031A700326B0032FD00338E00000033F1E
:10031A0090003BE0FF90003BEFF0801990003BE03B
:10032A002404F0801090003BE02408F0800790003D
:10033A003BE0240CF090003AE0FFC3EF648094B2F3
:10034A00501DE59064F060177FE87E03120A9790CB
:10035A00003AE004F080DE800690003B74FFF090E3
:04036A00003BE0FF75
:01036E00226C
:1009440090002D7401F090002DE0FFEFD39400404F
:100954002190002C7402F090002CE0FFEFD394005F
:10096400400890002CE014F080ED90002DE014F08D
:0209740080D42D
:01097600225E
:100AE600D2A0120944D2A1120944C2A0120944C2DA
:050AF600A112094422D9
:100B1D00C2A0120944D2A1120944D2A01209442242
:0505CD00900023EFF097
:1005D200900024E4F0900025E4F0900024E4F090F0
:1005E2000024E0FFEFC394085035900023E0FFEFB2
:1005F200C41313135401FFEF24FF92A0900023E0D1
:10060200FFEF25E0FF900023EFF0120944D2A11280
:100612000944C2A1120944900024E004F080C0D22F
:10062200A0120944D2A130A01B900025E004F09052
:100632000025E0FFEFD394C840ECC2A11209447F29
:0B064200002280E2C2A11209447F01E7
:01064D00228A
:1007EB0090002EE4F090002FE4F0D2A01209449078
:1007FB00002EE4F090002EE0FFEFC394085035D2AA
:10080B00A112094490002FE0FFEF25E0FF90002F8D
:10081B00EFF090002FE0FFA2A0E433FEEF4EFF902D
:10082B00002FEFF0120944C2A112094490002EE0F0
:09083B0004F080C090002FE0FFE2
:010844002291
:1009CE00900030EFF0900031EDF0120AE67FA012A9
:1009DE0005CD900030E0FF1205CD900031E0FF1202
:0609EE0005CD120B1D22D5
:05097700900032EFF0DA
:10097C00120AE67FA01205CD900032E0FF1205CDE1
:10098C00120AE67FA11205CD1207EB900033EFF0AF
:08099C00120B1D900033E0FF77
:0109A4002230
:03000000020541B5
:0C054100787FE4F6D8FD75812002058863
:1006C000BB010689828A83E0225002E722BBFE0238
:0906D000E32289828A83E493226B
:1006D900C5F0F8A3E028F0C5F0F8E58215827002AC
:0606E9001583E038F02249
:1006EF00A3F8E0C5F025F0F0E582158270021583BE
:0606FF00E0C838F0E8221B
:10070500D083D082F8E4937012740193700DA3A383
:1007150093F8740193F5828883E473740293686097
:06072500EFA3A3A380DF97
:10054D000201E2E493A3F8E493A34003F68001F2E1
:10055D0008DFF48029E493A3F85407240CC8C333AF
:10056D00C4540F4420C8834004F456800146F6DF7E
:10057D00E4800B0102040810204080900A7BE47E89
:10058D00019360BCA3FF543F30E509541FFEE49373
:10059D00A360010ECF54C025E060A840B8E493A33A
:1005AD00FAE493A3F8E493A3C8C582C8CAC583CA65
:1005BD00F0A3C8C582C8CAC583CADFE9DEE780BE1D
:010A9600005F
:00000001FF
