:1000EE003F065B4F666D7D077F6F777C395E79715A
:0100FE000001
:0B011700EF1FAC0670011E4C70F622BA
:0C00FF00438901758CD8758AF0D28C22E0
:10000300E4FDEDB40800504D900012F82828730267
:10001300002A02002E02003602003A0200420200C9
:100023004602004E020052D2A28002C2A2D2A3D242
:10003300A48022D2A28002C2A2C2A3D2A48016D2DA
:10004300A28002C2A2D2A3C2A4800AD2A28002C208
:10005300A2C2A3C2A4740B2DF8E6F5807F647E00D0
:0C006300120117E4F5800DED64087096A2
:01006F00226E
:10007000E50A75F00A849000EE93F50BE50A75F039
:100080000A84E5F093F50C750D40E50975F00A84D6
:1000900093F50EE50975F00A84E5F093F50F7510F8
:1000A00040E50875F00A8493F511E50875F00A84B7
:0600B000E5F093F51222B9
:1000B6001200FF308D2AC28D758CD8758AF005081E
:1000C600E508C394644019E4F5080509E509943C7C
:1000D600400EE4F509050AE50A943C4003E4F50AF6
:0800E60012007012000380CB30
:0300000002010BEF
:0C010B00787FE4F6D8FD7581120200B682
:00000001FF
