:1001B100081320524544204952200C1B4D4F544FE7
:1001C1002053544154453A201029303132333435CB
:0A01D10036373839414243444546B1
:0B027C00EF1FAC0670011E4C70F62254
:030006000202876C
:05029B002562F8E6FFFA
:0302A000020291C6
:0302AA00020254F9
:0702A300D2AFD2A8D28822DD
:0F026D00758902E4F58CF58AD28CD2A9D2AF2222
:1001DC007E01E4FDE4FCEFC313FF743D2EF8E6D37F
:1001EC00940640034307800E0CBC08EA745E2DF89D
:0901FC00A6070DBD04DE75080123
:0102050022D6
:10010100E55EC4540FF50AE55E540FF50BE55FC4D7
:10011100540FF50CE55F540FF50DE560C4540FF570
:100121000EE560540FF50FE561C4540FF510E5615C
:0D013100540FF511850E3B850F3C0527226C
:10009A007F80120006E4F562741312029B0562E582
:1000AA0062C3940840F2756204740A2562F8E62471
:1000BA0029F8E6FF1202A00562E562C3940640E948
:1000CA007FC0120006E4F562741B12029B0562E50A
:1000DA0062C3940C40F2E53A7F4FB4010C1202A0BD
:1000EA007F4E1202A07F20800A1202A07F461202CF
:0600FA00A07F461202A0E7
:0101000022DC
:10017B00E53BB40414E53CB4050FE527B4010AE4F0
:10018B00F53BF53C753A01D290E53BB40417E53CE1
:10019B00B40512E527C39402400BE4F53BF53CF59F
:0601AB0027F53AC2902284
:10023000C2901202AA1202A312026DE539600DE407
:10024000F5391201DCE508600312010112017B128D
:04025000009A80E7A9
:03000B000202AD41
:0302AD000509320E
:0300030002013EB9
:10013E00C0E0C0D075D000C000E5286023E509D32B
:10014E0094204003751200743D2512F8A609750916
:10015E00000512E512B4210E7512007539018006E4
:0D016E00752801750900D000D0D0D0E03216
:10020600C2A58F807F017E00120217D2A77F057ECE
:0102160000E7
:10021700D3EF9400EE9400400F7DC77C01DCFEDD38
:08022700FAEF1F70EB1E80E8E6
:01022F0022AC
:0A028700C2A7C2A6120206C2A722F7
:0A029100C2A7D2A6120206C2A722DD
:100254007F381202877F0C1202877F061202877F83
:09026400011202877F800202876B
:0300000002000EED
:0C000E00787FE4F6D8FD75816202005591
:10001A00020230E493A3F8E493A34003F68001F2CA
:10002A0008DFF48029E493A3F85407240CC8C333E7
:10003A00C4540F4420C8834004F456800146F6DFB6
:10004A00E4800B01020408102040809001B1E47E94
:10005A00019360BCA3FF543F30E509541FFEE493AB
:10006A00A360010ECF54C025E060A840B8E493A372
:10007A00FAE493A3F8E493A3C8C582C8CAC583CA9D
:10008A00F0A3C8C582C8CAC583CADFE9DEE780BE55
:0101DB000023
:00000001FF
