:10029E0012014D90000AEFF090000AE0FFEF1204F9
:1002AE003B02BC0002C00102C402000002C6B20042
:1002BE008006C2018002D2017F94120399EF780268
:1002CE00CEC313CE13D8F9FF900008EEF0A3EFF0D3
:1002DE00900008E0FEA3E0FFD3EF94C8EE94004038
:1002EE0010900009E02438F0900008E034FFF08010
:1002FE0009900008E4F0A37401F0300093A201927B
:10030E0002900008E0FEA3E0FF90000FEEF0A3EFD6
:08031E00F012000302029E220E
:0404A60041001400FD
:10048B0090000BEEF0A3EFF090000B74FF75F0FFF4
:0B049B00120425AFF0FEEF4E70EE22C1
:10014D00900013E4F075800FE580640F70030202D8
:10015D00067FE87E0312048BE580640F70030202B4
:10016D000C75800FAF80EF12043B018707018E0BDA
:10017D0001960D019E0E000001A4900014E4F08084
:10018D00169000147401F0800E9000147402F0802B
:10019D00069000147403F07580F0AF80EF12043BED
:1001AD0001BD7001C9B001D2D001DBE0000001E258
:1001BD00900014E0FF900014EFF08019900014E00F
:1001CD002404F08010900014E02408F080079000C3
:1001DD0014E0240CF0900013E0FFC3EF648094B2A0
:1001ED00501DE58064F060177FE87E0312048B904C
:1001FD000013E004F080DE800690001474FFF09090
:04020D000014E0FFFA
:0102110022CA
:0404AA0041001500F8
:1004610090000DEEF0A3EFF090000DE0FEA3E0FF91
:10047100D3EF9400EE9400401090000EE024FFF0C2
:0A04810090000DE034FFF080DF2250
:10000300900015E0FFEF12043B002800004B0100B5
:100013006E0200910300B40400D60500F806011A2D
:100023000700000139D290C291C292C293300208F4
:10003300900015E004F080069000157407F07F141B
:100043007E00120461020139D290C291D292C2930E
:10005300300208900015E004F08006900015E014CB
:10006300F07F147E00120461020139C290C291D262
:1000730092C293300208900015E004F080069000CD
:1000830015E014F07F147E00120461020139C2905E
:10009300D291D292C293300208900015E004F0800E
:1000A30006900015E014F07F147E00120461020133
:1000B30039C290D291C292C293300208900015E0E7
:1000C30004F08006900015E014F07F147E00120403
:1000D300618063C290D291C292D2933002089000A1
:1000E30015E004F08006900015E014F07F147E0004
:1000F3001204618041C290C291C292D2933002082D
:10010300900015E004F08006900015E014F07F14D1
:100113007E00120461801FD290C291C292D29330AA
:100123000207900015E4F08006900015E014F07FBC
:10013300147E00120461C290C291C292C2939000D5
:0A0143000FE0FEA3E0FF12046122AA
:0503E100900011EFF097
:1003E600C2B6900012E4F0900012E0FFEFC394084A
:1003F600502C900011E0FFEFC41313135401FFEFCC
:1004060024FF92B4900011E0FFEF25E0FF90001169
:0E041600EFF0C2B6D2B6900012E004F080C93A
:0104240022B5
:10032600900002E4F0A3E4F0C2B6900000E4F0A36B
:10033600E4F0900000E0FEA3E0FFC3EF940CEE941F
:10034600005047900002E0FEA3E0FFEF25E0FFEE3D
:1003560033FE900002EEF0A3EFF0D2B6C2B69000E4
:1003660002E0FEA3E0FFA2B7E4FC33FDEE4CFEEF95
:100376004DFF900002EEF0A3EFF0900001E004F0D4
:100386007006900000E004F080A8900002E0FEA352
:02039600E0FF86
:010398002242
:05039900900004EFF0EC
:10039E00C2B6C2B5900004E0FF1203E190000574EE
:1003AE0006F0900005E0FFEFD394004008900005A2
:1003BE00E014F080EDD2B60000C2B60000120326A3
:1003CE00900006EEF0A3EFF0D2B5900006E0FEA38B
:0203DE00E0FF3E
:0103E00022FA
:03000000020212E7
:0C021200787FE4F6D8FD758120020259C7
:10042500A3F8E0C5F025F0F0E5821582700215838A
:06043500E0C838F0E822E7
:10043B00D083D082F8E4937012740193700DA3A350
:10044B0093F8740193F5828883E473740293686064
:06045B00EFA3A3A380DF64
:10021E0002029EE493A3F8E493A34003F68001F256
:10022E0008DFF48029E493A3F85407240CC8C333E1
:10023E00C4540F4420C8834004F456800146F6DFB0
:10024E00E4800B01020408102040809004A6E47E96
:10025E00019360BCA3FF543F30E509541FFEE493A5
:10026E00A360010ECF54C025E060A840B8E493A36C
:10027E00FAE493A3F8E493A3C8C582C8CAC583CA97
:10028E00F0A3C8C582C8CAC583CADFE9DEE780BE4F
:0104AE00004D
:00000001FF
