:10034C003F065B4F666D7D077F6F777C395E7971F9
:01035C0000A0
:10033600010B00010C00010D00010E000117000168
:050346000A000108019E
:0B036B00EF1FAC0670011E4C70F62264
:0E035D00438901758CD8758AF0D2A9D2AF22DF
:10027D00E4FDEDB40800504D90028CF8282873026F
:10028D0002A40202A80202B00202B40202BC0202DF
:10029D00C00202C80202CCD2A28002C2A2D2A3D254
:1002AD00A48022D2A28002C2A2C2A3D2A48016D25E
:1002BD00A28002C2A2D2A3C2A4800AD2A28002C28C
:1002CD00A2C2A3C2A4740F2DF8E6F5807F647E0050
:0C02DD0012036BE4F5800DED64087096D0
:0102E90022F2
:1002EA00BF0103750801E5086401702E30B00930BA
:1002FA00B10630B20320B3227FE87E0312036BE417
:10030A00F50820B0037F012220B1037F022220B228
:10031A00037F032220B3127F042230B00C30B109CC
:0B032A0030B20630B3037508017F00FD
:0103350022A5
:10000E00E4FF1202EABF040E0517D28CE517B40204
:10001E0005C28CE4F517E51770028011EF640270CB
:10002E0061050AE50AD394034003E4F50AAF0EEF27
:10003E003395E0FE744C2FF58274033EF583E49302
:10004E00F50FAF0DEF3395E0FE744C2FF582740370
:10005E003EF583E493F510AF0CEF3395E0FE744C50
:10006E002FF58274033EF583E493F511AF0BEF3356
:10007E0095E0FE744C2FF58274033EF583E493F500
:10008E001222EF64017051E50A14601F14602B14E4
:10009E00603724036003020135050BD3E50B648042
:1000AE0094895003020135E4F50B22050CD3E50CBF
:1000BE00648094894071E4F50C22050DD3E50D643E
:1000CE008094894062E4F50D22050ED3E50E64801E
:1000DE0094894053E4F50E22EF6403704AE50A1446
:1000EE0060191460251460312403703B150BD3E5A1
:1000FE000B648094805030750B0922150CD3E50CDF
:10010E00648094805021750C0922150DD3E50D6481
:10011E008094805012750D0922150ED3E50E648061
:07012E0094805003750E09D7
:0101350022A7
:0B03760012035D12000E12027D80F8E1
:03000B00020136B9
:0F013600C0E0C083C082C0D075D000C006C00733
:10014500758CD8758AF00509E509B43221E50A14DC
:10015500600F14601114601324037012751200806F
:100165000D75110080087510008003750F00E509F5
:100175006464706BF509E50A146021146035146038
:10018500492403705AAF0BEF3395E0FE744C2FF5FD
:100195008274033EF583E493F5128043AF0CEF338D
:1001A50095E0FE744C2FF58274033EF583E493F5D8
:1001B50011802CAF0DEF3395E0FE744C2FF5827452
:1001C500033EF583E493F5108015AF0EEF3395E00C
:0F01D500FE744C2FF58274033EF583E493F50F0F
:0D01E400D007D006D0D0D082D083D0E0323A
:030000000201F109
:0C01F100787FE4F6D8FD75811702023813
:1001FD00020376E493A3F8E493A34003F68001F29F
:10020D0008DFF48029E493A3F85407240CC8C33302
:10021D00C4540F4420C8834004F456800146F6DFD1
:10022D00E4800B0102040810204080900336E47E28
:10023D00019360BCA3FF543F30E509541FFEE493C6
:10024D00A360010ECF54C025E060A840B8E493A38D
:10025D00FAE493A3F8E493A3C8C582C8CAC583CAB8
:10026D00F0A3C8C582C8CAC583CADFE9DEE780BE70
:01034B0000B1
:00000001FF
