:06012B008D0BAB07AA06D4
:10013100750F40750E42750D0F750C00AF0FAE0EA9
:10014100AD0DAC0CC006C007E4F9F8D007D006121B
:1001510000998F0F8E0E8D0D8C0CAF0BE4FCFDFE04
:10016100AB0FAA0EA90DA80C12000EE47B64FAF9DC
:10017100F8120099AD07AC06C3E50F9DFFE50E9C93
:10018100AB07FAC3E49DFDE49CFCC3E49BFBE49A4A
:100191008C128D13F5108B115389F043890185124F
:0C01A1008C85138AD2A1D28CD2A9D2AFD7
:0101AD00222F
:07000300C28CC2A9D2A122A8
:1001AE00E4F508F509F50AE50A701D740A2509F546
:1001BE0009E43508F508C3E509945AE50864809406
:1001CE00804021750A01801C74F62509F50974FF1B
:1001DE003508F508D3E5099400E50864809480504D
:1001EE0003E4F50AAD097F647E0012012BE4FEFFE5
:1001FE000FBF00010EBE75F8BF30F512000380A7C9
:03000B0002020EE0
:10020E0030A10985108C85118AC2A13285128C8588
:05021E00138AD2A13299
:03000000020223D6
:0C022300787FE4F6D8FD7581130201AE6F
:10000E00E88FF0A4CC8BF0A42CFCE98EF0A42CFC91
:10001E008AF0EDA42CFCEA8EF0A4CDA8F08BF0A40F
:10002E002DCC3825F0FDE98FF0A42CCD35F0FCEB6E
:10003E008EF0A4FEA9F0EB8FF0A4CFC5F02ECD3933
:0F004E00FEE43CFCEAA42DCE35F0FDE43CFC22A0
:10005D0075F008758200EF2FFFEE33FECD33CDCC5A
:10006D0033CCC58233C5829BED9AEC99E5829840DD
:10007D000CF582EE9BFEED9AFDEC99FC0FD5F0D6BA
:10008D00E4CEFBE4CDFAE4CCF9A88222B800C1B9E4
:10009D000059BA002DEC8BF084CFCECDFCE5F0CB22
:1000AD00F97818EF2FFFEE33FEED33FDEC33FCEB5B
:1000BD0033FB10D703994004EB99FB0FD8E5E4F916
:1000CD00FA227818EF2FFFEE33FEED33FDEC33FC03
:1000DD00C933C910D7059BE99A4007EC9BFCE99AF7
:1000ED00F90FD8E0E4C9FAE4CCFB2275F010EF2F3C
:1000FD00FFEE33FEED33FDCC33CCC833C810D7073C
:10010D009BEC9AE899400AED9BFDEC9AFCE899F876
:0E011D000FD5F0DAE4CDFBE4CCFAE4C8F92209
:00000001FF
